S01100006C63644453333233312E7372656380
S11300000C942A000C9447000C9447000C9447006D
S11300100C9447000C9447000C9447000C94470040
S11300200C9447000C9447000C9447000C94470030
S11300300C9447000C9447000C9447000C94470020
S11300400C9447000C9447000C9447000C94470010
S11300500C94470011241FBECFE5D4E0DEBFCDBF12
S113006012E0A0E6B0E0EEE2F4E202C005900D92E8
S1130070A434B107D9F723E0A4E4B2E001C01D928F
S1130080A230B207E1F70E944B070C9415120C94AE
S1130090000011B88FE280B9089594EA96BF06B6BD
S11300A007FEFDCF91B1987F983071F483B984E84D
S11300B086BF06B607FEFDCF81B1887F883131F057
S11300C0803231F482E0089580E0089581E008955B
S11300D083E0089594EA96BF06B607FEFDCF91B17A
S11300E0987F903171F483B984E886BF06B607FE21
S11300F0FDCF81B1887F803431F0803231F482E0E9
S1130100089580E0089581E0089583E0089584E9E6
S113011086BF06B604FCFDCF089583B984E886BF84
S113012006B607FEFDCF81B1887F883221F0803387
S113013021F481E0089580E0089582E0089584EC3C
S113014086BF06B607FEFDCF83B190E0089584E82C
S113015086BF06B607FEFDCF83B190E008958BB34A
S113016080648BBB00C000C08BB38F7B8BBB0895B6
S1130170CF93DF93D82F662321F08BB380618BBBA1
S113018003C08BB38F7E8BBB8BB38F7D8BBB8AB34A
S11301908F608ABBCBB3C07F8D2F82958F708C2BE1
S11301A08BBB0E94AF00DF70DC2BDBBB0E94AF0077
S11301B0CF60CBBBDF91CF910895882321F08BB31F
S11301C080618BBB03C08BB38F7E8BBB8BB3806290
S11301D08BBB8AB3807F8ABB8BB380648BBB00C02C
S11301E000C099B39295907F8BB38F7B8BBB00C07B
S11301F000C08BB380648BBB00C000C089B38F7018
S11302002BB32F7B2BBB892B0895CF93DF93C0E0B7
S1130210D0E001C0EC0180E00E94DD0088232CF4D2
S1130220CE010196C83ED340A8F385E090E0019743
S1130230F1F780E00E94DD00DF91CF910895CF9324
S1130240C82F0E94050160E08C2F0E94B800CF9156
S11302500895611104C080580E941F0108958054BC
S11302600E941F01089581E00E941F010895CF9309
S1130270C82F0E940501CA3049F4803410F480E488
S113028001C080E080580E941F0104C061E08C2FEF
S11302900E94B800CF9108950F931F93CF93FC0150
S11302A0C0E003C00E943701F8018F010F5F1F4FA8
S11302B08081882319F0CF5FC531A0F3CF911F91BE
S11302C00F9108951F93CF93DF93182F8AB38F67ED
S11302D08ABB8AB380678ABB2FEF8FE593E02150F6
S11302E080409040E1F700C000008BB382608BBB7C
S11302F08BB381608BBB0E94AF008FEF9BE60197AD
S1130300F1F700C000000E94AF00C0EBD0E0CE01C6
S11303100197F1F70E94AF00CE010197F1F78BB37B
S11303208E7F8BBB0E94AF002197F1F788E20E9479
S11303301F0188E00E941F010E94330186E00E9491
S11303401F01812F0E941F01DF91CF911F910895FA
S11303501F93CF93DF93D62F142FC82FC22B80ED7A
S11303600E944D0080E00E948D00812F0E948D002C
S11303708D2F0E948D008C2F0E948D000E9487007B
S1130380DF91CF911F910895CF93DF9380ED0E9469
S11303904D0081E10E948D0081ED0E946A000E945F
S11303A09F00EC010E94A700DD27D093ED02C093CB
S11303B0EC028295869586958370682F70E080E0C4
S11303C090E00E94780D20E030E040E85EE30E9477
S11303D0DC0D0E94400D70934E0260934D020E940A
S11303E08700DF91CF910895CF93C82F80ED0E94AD
S11303F04D008C2F0E948D0081ED0E946A000E94A6
S11304009F0090935202809351020E949F00909308
S1130410EA028093E9020E94A7009093EF0280937E
S1130420EE020E948700CF910895CF93C82F80EDEC
S11304300E944D008C2F0E948D0081ED0E946A0065
S11304400E949F009093F3028093F2020E949F0007
S11304509093F5028093F4020E949F0090935002BF
S113046080934F020E94A7009093F1028093F002C0
S11304700E948700CF91089526B330E0082E02C071
S1130480359527950A94E2F720FD15C022E333E061
S113049041E0215030404040E1F700C000C026B3A5
S11304A030E0A90102C0559547958A95E2F740FDD1
S11304B004C081E0089580E0089580E008959C01DF
S11304C03595279535952795359527953595279510
S11304D0A901440F551F220F331F220F331F220F70
S11304E0331F240F351F8F709927820F931F089590
S11304F0FF920F931F93CF93DF93CDB7DEB764972B
S11305000FB6F894DEBF0FBECDBF8091EA028F9381
S11305108091E9028F938091EF028F938091EE0294
S11305208F9387E690E09F938F931F920F2EF4E1B1
S1130530FF2EF02DFF928E010F5F1F4F1F930F931D
S11305400E94FB0E60E085E00E942901C8010E9420
S11305504C010E94C40180914E028F9380914D0200
S11305608F938091ED028F938091EC028F9381E7BA
S113057090E09F938F931F92FF921F930F930E947B
S1130580FB0E61E08AE00E942901C8010E944C012F
S113059083E00E9415028091F1028F938091F00212
S11305A08F93809150028F9380914F028F9380910B
S11305B0F5028F938091F4028F9389E790E09F93E3
S11305C08F931F92FF921F930F930E94FB0E0FB6FF
S11305D0F894DEBF0FBECDBF61E080E00E94290128
S11305E0C8010E944C0164960FB6F894DEBF0FBE9A
S11305F0CDBFDF91CF911F910F91FF900895FF928E
S11306000F931F93CF93DF93CDB7DEB764970FB6E5
S1130610F894DEBF0FBECDBF7F936F939F938F93EC
S113062089E890E09F938F931F920F2EF4E1FF2EA1
S1130630F02DFF928E010F5F1F4F1F930F930E94A7
S1130640FB0E60E085E00E942901C8010E944C0174
S11306500E94C40180914E028F9380914D028F932A
S11306608091ED028F938091EC028F9381E790E06B
S11306709F938F931F92FF921F930F930E94FB0EE1
S113068061E08AE00E942901C8010E944C0183E0D4
S11306900E9415028091F1028F938091F0028F9352
S11306A0809150028F9380914F028F938091F50235
S11306B08F938091F4028F9389E790E09F938F93B7
S11306C01F92FF921F930F930E94FB0E0FB6F89494
S11306D0DEBF0FBECDBF61E080E00E942901C801EA
S11306E00E944C0164960FB6F894DEBF0FBECDBFD6
S11306F0DF91CF911F910F91FF900895CF92DF92D8
S1130700EF92FF920F931F93CF93DF93CDB7DEB792
S113071064970FB6F894DEBF0FBECDBF60E080E0F3
S11307200E94290183E990E00E944C0161E080E08D
S11307300E94290161E081E00E9429018091660004
S11307401F928F930F2EFEE8CF2EF0E0DF2EF02DB8
S1130750DF92CF928E010F5F1F4F1F930F930E9462
S11307602B0FC8010E944C0161E083E00E94290123
S1130770809165001F928F930F2EFDE8EF2EF0E01D
S1130780FF2EF02DFF92EF921F930F930E942B0FD9
S1130790C8010E944C0161E087E00E9429018CE9B4
S11307A090E00E944C0161E08AE00E94290180915E
S11307B064001F928F93DF92CF921F930F930E9436
S11307C02B0FC8010E944C0161E08CE00E942901BA
S11307D0809163001F928F93FF92EF921F930F9368
S11307E00E942B0FC8010E944C010FB6F894DEBF83
S11307F00FBECDBF64960FB6F894DEBF0FBECDBF5B
S1130800DF91CF911F910F91FF90EF90DF90CF90E8
S113081008950F931F93CF93DF93CDB7DEB76497FB
S11308200FB6F894DEBF0FBECDBF60E080E00E943B
S113083029018FE990E00E944C0160E088E00E9469
S11308402901809160001F928F9386EA90E09F9324
S11308508F938E010F5F1F4F1F930F930E942B0FD7
S1130860C8010E944C0161E080E00E9429018EEAE7
S113087090E00E944C0161E085E00E942901809192
S113088061001F928F93809162001F928F9389E879
S113089090E09F938F931F930F930E942B0FC80197
S11308A00E944C010FB6F894DEBF0FBECDBF649614
S11308B00FB6F894DEBF0FBECDBFDF91CF911F916D
S11308C00F91089522E00DC032B381E090E0022E32
S11308D002C0880F991F0A94E2F78095832382BB94
S11308E02F5F283088F326E00DC035B381E090E017
S11308F0022E02C0880F991F0A94E2F78095832381
S113090085BB2F5F283088F3089527E00CC032B3ED
S113091081E090E0022E02C0880F991F0A94E2F74A
S1130920832B82BB2150223090F727E00CC035B3D3
S113093081E090E0022E02C0880F991F0A94E2F72A
S1130940832B85BB2150263090F70895893191057A
S113095014F081E090E0992314F488E190E0089584
S11309608C33910514F080E090E0992314F48BE328
S113097090E00895CF93DF9380E00E94F40180918A
S1130980E9029091EA020E945F02EC018091510217
S1130990909152020E945F022091480230E0C217F7
S11309A0D30714F4C20FD31FC21BD30B20916000D2
S11309B030E0C217D30744F02091470230E0821799
S11309C0930714F010924902DF91CF91089586E0C5
S11309D090E00E943C02882359F080914502809364
S11309E04802809144028093470281E08093490247
S11309F008950F931F93CF93DF93CDB7DEB7EC9792
S1130A000FB6F894DEBF0FBECDBF82EB90E09F938C
S1130A108F9385EB90E09F938F9388EC90E09F9366
S1130A208F938E010F5F1F4F1F930F930E942B0F05
S1130A30C8010E942A0D8EE292E00E942A0D2FEF37
S1130A408FE992E3215080409040E1F700C000001C
S1130A500FB6F894DEBF0FBECDBFEC960FB6F89478
S1130A60DEBF0FBECDBFDF91CF911F910F910895CF
S1130A70EF92FF920F931F93CF93DF93CDB7DEB71F
S1130A80C25DD1090FB6F894DEBF0FBECDBF613091
S1130A90C1F41F924F931F928F9382EE90E09F9325
S1130AA08F9383EF90E09F938F93CE01CD969F9386
S1130AB08F930E942B0F0FB6F894DEBF0FBECDBFED
S1130AC01BC06230C9F41F922F931F924F931F9241
S1130AD08F9382EE90E09F938F938FE291E09F93A8
S1130AE08F93CE01CD969F938F930E942B0F0FB6B9
S1130AF0F894DEBF0FBECDBF8E01035C1F4FF8011B
S1130B0001900020E9F73197E01BF10B3296FF9337
S1130B10EF938DE691E09F938F93CE0101967C0134
S1130B209F938F930E942B0FC7010E942A0D8EE280
S1130B3092E00E942A0D9FEF2FE982E3915020401A
S1130B408040E1F700C00000C8010E942A0D8EE237
S1130B5092E00E942A0D9FEF2FE982E391502040FA
S1130B608040E1F700C000000F900F900F900F90AD
S1130B700F900F90CE52DF4F0FB6F894DEBF0FBE2A
S1130B80CDBFDF91CF911F910F91FF90EF9008950A
S1130B90EF92FF920F931F93CF93DF93CDB7DEB7FE
S1130BA0C25DD1090FB6F894DEBF0FBECDBF1F9250
S1130BB08F938BE791E09F938F9383E891E09F93CA
S1130BC08F938E01035C1F4F1F930F930E942B0F73
S1130BD0F80101900020E9F73197E01BF10B329600
S1130BE0FF93EF938DE691E09F938F93CE0101964F
S1130BF07C019F938F930E942B0FC7010E942A0DA3
S1130C008EE292E00E942A0D9FEF2FE982E3915039
S1130C1020408040E1F700C00000C8010E942A0D76
S1130C208EE292E00E942A0D0FB6F894DEBF0FBE4A
S1130C30CDBFCE52DF4F0FB6F894DEBF0FBECDBF8F
S1130C40DF91CF911F910F91FF90EF900895CF9373
S1130C50C82F61EC71E083E592E00E94D90E892BE4
S1130C60F1F165EC71E083E592E00E94D90E909376
S1130C70F7028093F60207960E94BB0EC13049F436
S1130C8064E670E00E94710E6093660080936500D4
S1130C901AC0C23049F464E670E00E94710E609399
S1130CA06400809363000FC0C33019F48093600024
S1130CB00AC0C43041F464E670E00E94710E60938F
S1130CC062008093610086E9E3E5F2E0DF011D92B2
S1130CD08A95E9F71092F7021092F6024FC06AEC77
S1130CE071E083E592E00E94D90E0097D9F09093C9
S1130CF0F7028093F60207960E94BB0E059719F43B
S1130D001092EB0203C081E08093EB0286E9E3E5F5
S1130D10F2E0DF011D928A95E9F71092F702109232
S1130D20F6022CC062ED71E083E592E00E94D90ED8
S1130D30892B79F081E08093EB0286E9E3E5F2E028
S1130D40DF011D928A95E9F71092F7021092F602DC
S1130D5015C061EE71E083E592E00E94D90E892B03
S1130D6069F01092EB0286E9E3E5F2E0DF011D92FF
S1130D708A95E9F71092F7021092F602CF9108953E
S1130D80CF92DF92EF92FF920F931F93CF93DF9353
S1130D90D82F7B016A01C0E00C2F10E00E94220DC5
S1130DA0F801ED5AFD4F8083CF5FC63909F4C0E0E6
S1130DB0B70183E592E00E94D90E892B39F4B6017C
S1130DC083E592E00E94D90E892B31F366EE71E03F
S1130DD083E592E00E94D90E892B59F086E9E3E578
S1130DE0F2E0DF011D928A95E9F71092F702109262
S1130DF0F6028D2F0E942706DF91CF911F910F914C
S1130E00FF90EF90DF90CF9008950F931F93CF93AF
S1130E10DF93CDB7DEB7EC970FB6F894DEBF0FBE05
S1130E20CDBF8CEE91E09F938F9383E092E09F93EC
S1130E308F938FE092E09F938F938E010F5F1F4FEC
S1130E401F930F930E942B0FC8010E942A0D8EE25C
S1130E5092E00E942A0D41EE51E062ED71E080E0E3
S1130E600E94C0062FEF8FE793E42150804090400A
S1130E70E1F700C000000FB6F894DEBF0FBECDBF8F
S1130E80EC960FB6F894DEBF0FBECDBFDF91CF91C5
S1130E901F910F9108958CEF81BB82BB80EC84BBC2
S1130EA085BB17BA8FE788BB80B78B7F80BF0E9452
S1130EB049008CE00E94620160E072EC81E090E005
S1130EC00E94FA0C2FEF3FEB81E22150304080402A
S1130ED0E1F700C0000082E292E00E942A0D46EE93
S1130EE051E061E372E081E00E94C0068091EB0270
S1130EF0811102C00E94050780E00E94F4018091E4
S1130F00EE029091EF020E945F028093460280916C
S1130F10E9029091EA020E945F0280934502809167
S1130F205102909152020E945F0280934402809188
S1130F304C02813009F481C120F0823009F471C37C
S1130F40E0C40E947802809144028E3109F055C0B9
S1130F5082E292E00E942A0D46EE51E061E372E0E3
S1130F6081E00E94C00660E08FE00E94290184E3D2
S1130F7092E00E944C018091EB02811102C00E9418
S1130F8005078091EB028823C1F10E94F90481E0F6
S1130F900E94C80546EE51E061EC71E081E00E94D8
S1130FA0C0060E94F90482E00E94C80546EE51E0A2
S1130FB061EC71E082E00E94C0060E94F90483E0C3
S1130FC00E94C80546EE51E061EC71E083E00E94A6
S1130FD0C0060E94F90484E00E94C80546EE51E070
S1130FE061EC71E084E00E94C00660E08FE00E9442
S1130FF0290187E890E00E944C0182E090E00E9481
S11310003C02882309F401C10091460210E0C0911A
S11310104502D0E080914B02882321F0813009F40D
S113102053C0BAC060E084E00E94290186E392E0E4
S11310300E944C01BE01C8010E94FF0284E090E0BE
S11310400E943C02882389F0C80101960E94A604EC
S11310508C01BE010E94FF029FEF2FEB36E09150FE
S113106020403040E1F700C0000085E090E00E949D
S11310703C02882389F0C80101970E94A6048C01D0
S1131080BE010E94FF028FEF9FEB26E0815090404B
S11310902040E1F700C0000081E090E00E943C02A3
S11310A0882309F479C080914B028F5F80934B02AF
S11310B03FEF8FEB96E0315080409040E1F700C065
S11310C000000E94330168C060E08AE00E942901A8
S11310D088E392E00E944C01BE01C8010E94FF0215
S11310E084E090E00E943C02882391F0CE010196B6
S11310F00E94B004EC01BC01C8010E94FF022FEF62
S11311003FEB86E0215030408040E1F700C0000012
S113111085E090E00E943C02882391F0CE01019783
S11311200E94B004EC01BC01C8010E94FF029FEFC1
S11311302FEB36E0915020403040E1F700C0000032
S113114081E090E00E943C02882381F080914B0270
S11311508F5F80934B028FEF9FEB26E0815090408E
S11311602040E1F700C000000E94330180E090E0DD
S11311700E943C02882381F080914B02815080932D
S11311804B023FEF8FEB96E0315080409040E1F707
S113119000C000000E94330183E090E00E943C0202
S11311A0813009F037CFC8010A970A9718F40A5F0B
S11311B01F4F05C00431110514F0045F1F4F9E0139
S11311C0CE010A970A9710F4269617C0CE014497C9
S11311D00A9710F42C9611C0CE014E970A9710F47A
S11311E062960BC0285231092A30310510F46896F2
S11311F004C0C233D1050CF06E9620E040E06C2FA1
S1131200802F0E94A8010E94330181E090E00E9497
S11312103C02882309F475C380914C028F5F80934C
S11312204C020E9433012FEF3FEB86E02150304007
S11312308040E1F700C0000064C30E947E0382E0A6
S113124090E00E943C02882309F4BDC180914B02C6
S1131250813009F45CC038F0823009F4C2C08330B4
S113126009F429C17AC161E080E00E94290186E382
S113127092E00E944C010E947E0384E090E00E9470
S11312803C02882399F0809166008F5F90E00E9471
S1131290A604809366000E947E039FEF2FEB36E046
S11312A0915020403040E1F700C0000085E090E01C
S11312B00E943C02882399F080916600815090E05E
S11312C00E94A604809366000E947E038FEF9FEB2A
S11312D026E0815090402040E1F700C0000081E00A
S11312E090E00E943C02882309F437C180914B02AC
S11312F08F5F80934B023FEF8FEB96E0315080403D
S11313009040E1F700C000000E94330126C161E073
S113131086E00E94290188E392E00E944C010E9429
S11313207E0384E090E00E943C02882399F080913F
S113133065008F5F90E00E94B004809365000E9476
S11313407E032FEF3FEB86E0215030408040E1F7F1
S113135000C0000085E090E00E943C02882399F0E0
S113136080916500815090E00E94B00480936500F4
S11313700E947E039FEF2FEB36E0915020403040D7
S1131380E1F700C0000081E090E00E943C02882365
S113139081F080914B028F5F80934B028FEF9FEB24
S11313A026E0815090402040E1F700C000000E94F8
S11313B0330180E090E00E943C02882309F4CDC010
S11313C080914B02815080934B023FEF8FEB96E06C
S11313D0315080409040E1F700C000000E9433018A
S11313E0BCC061E089E00E94290186E392E00E948A
S11313F04C010E947E0384E090E00E943C0288231A
S113140099F0809164008F5F90E00E94A60480931D
S113141064000E947E032FEF3FEB86E021503040B2
S11314208040E1F700C0000085E090E00E943C02AB
S1131430882399F080916400815090E00E94A60472
S1131440809364000E947E039FEF2FEB36E091505F
S113145020403040E1F700C0000081E090E00E94AD
S11314603C02882381F080914B028F5F80934B0272
S11314708FEF9FEB26E0815090402040E1F700C0C1
S113148000000E94330180E090E00E943C02882327
S113149009F463C080914B02815080934B023FEF6B
S11314A08FEB96E0315080409040E1F700C000009F
S11314B00E94330152C061E08FE00E94290188E359
S11314C092E00E944C010E947E0384E090E00E941E
S11314D03C02882399F0809163008F5F90E00E9422
S11314E0B004809363000E947E032FEF3FEB86E0FD
S11314F0215030408040E1F700C0000085E090E0DA
S11315000E943C02882399F080916300815090E00E
S11315100E94B004809363000E947E039FEF2FEB30
S113152036E0915020403040E1F700C0000080E0F8
S113153090E00E943C02882381F080914B0281500C
S113154080934B028FEF9FEB26E081509040204028
S1131550E1F700C000000E94330183E090E00E94A4
S11315603C02813009F072CE8091EB02882349F16C
S11315700E94330160E084E00E9429018AE392E042
S11315800E944C010E94F90420916500409166007C
S113159062E081E00E9438053FEF8FEE93EB21E09B
S11315A03150804090402040D9F700C000000E9494
S11315B0F904209163004091640062E082E00E949B
S11315C038050E94330181E090E00E943C028823A8
S11315D081F080914C028F5F80934C020E94330112
S11315E03FEF8FEB96E0315080409040E1F700C030
S11315F0000080E090E00E943C02882309F481C14D
S113160080914C02815080934C020E9433012FEF51
S11316103FEB86E0215030408040E1F700C00000FD
S113162070C10E94090410924B0282E090E00E9473
S11316303C02882309F44FC180914B02813009F4A4
S113164059C020F0823009F4BFC010C160E086E0C8
S11316500E94290186E392E00E944C010E94090441
S113166084E090E00E943C02882399F0809160001D
S11316708F5F90E00E94B004809360000E94090490
S11316809FEF2FEB36E0915020403040E1F700C04F
S1131690000085E090E00E943C02882399F080914C
S11316A06000815090E00E94B004809360000E942A
S11316B009048FEF9FEB26E0815090402040E1F732
S11316C000C0000081E090E00E943C02882309F4FD
S11316D0CDC080914B028F5F80934B023FEF8FEB25
S11316E096E0315080409040E1F700C000000E9435
S11316F03301BCC061E083E00E94290186E392E0EB
S11317000E944C010E94090484E090E00E943C0283
S1131710882399F0809162008F5F90E00E94A60474
S1131720809362000E9409042FEF3FEB86E0215072
S113173030408040E1F700C0000085E090E00E9466
S11317403C02882399F080916200815090E00E94CD
S1131750A604809362000E9409049FEF2FEB36E0F9
S1131760915020403040E1F700C0000081E090E05B
S11317700E943C02882381F080914B028F5F80930A
S11317804B028FEF9FEB26E0815090402040E1F721
S113179000C000000E94330180E090E00E943C02FF
S11317A0882309F463C080914B02815080934B02DB
S11317B03FEF8FEB96E0315080409040E1F700C05E
S11317C000000E94330152C061E08AE00E942901B6
S11317D088E392E00E944C010E94090484E090E0B6
S11317E00E943C02882399F0809161008F5F90E011
S11317F00E94B004809361000E9409042FEF3FEB24
S113180086E0215030408040E1F700C0000085E0D0
S113181090E00E943C02882399F0809161008150FD
S113182090E00E94B004809361000E9409049FEF3D
S11318302FEB36E0915020403040E1F700C000002B
S113184080E090E00E943C02882381F080914B026A
S1131850815080934B028FEF9FEB26E081509040A4
S11318602040E1F700C000000E94330183E090E0D3
S11318700E943C02813009F0DFCE8091EB02882384
S113188041F10E94330160E084E00E9429018AE36F
S113189092E00E944C010E94F90420E04091600013
S11318A061E083E00E9438053FEF8FEE93EB21E087
S11318B03150804090402040D9F700C000000E9481
S11318C0F904209161004091620062E084E00E948A
S11318D038050E94330180E090E00E943C02882396
S11318E081F080914C02815080934C020E9433011C
S11318F03FEF8FEB96E0315080409040E1F700C01D
S113190000008091490281112AC080914602909181
S11319106600981740F420916400821720F481E057
S113192080934A021CC089130AC0209145029091F9
S11319306500291720F081E080934A0210C090913D
S1131940640089130AC0909145028091630098173E
S113195020F481E080934A0202C010924A028091EE
S1131960460290916400981738F42091620082171F
S113197018F40E94E70428C0891309C03091450275
S113198020916300321718F00E94E7041DC02091D3
S11319906200821309C040914502309161003417FE
S11319A018F00E94E70410C0291770F4981720F467
S11319B0893110F40E94E7049091460280916200FC
S11319C0981710F40E94E7048091490281110E9443
S11319D0BA0480914902882319F081E080934A0275
S11319E080914A02882319F00E94620485CA0E94E9
S11319F0850482CADC01CB01880F991FAA1FBB1F73
S1131A00880F991FAA1FBB1F9C01AD01220F331F12
S1131A10441F551F220F331F441F551F60E070ECF5
S1131A2088EA90E00E94850E215031098BB18D7FA8
S1131A308BB98AB188618AB980B5866880BD29B9B5
S1131A4030BD08955F9BFECF8CB108955D9BFECFA2
S1131A508CB908950F931F93CF93DF938C01C0E04B
S1131A60D0E003C00E94260D2196F801EC0FFD1F63
S1131A7080818111F7CFDF91CF911F910F9108954C
S1131A800E94470D6894B1110C94D60D08950E94DC
S1131A90BB0D88F09F5798F0B92F9927B751B0F034
S1131AA0E1F0660F771F881F991F1AF0BA95C9F7DE
S1131AB014C0B13091F00E94D50DB1E008950C949A
S1131AC0D50D672F782F8827B85F39F0B93FCCF34D
S1131AD0869577956795B395D9F73EF4909580955B
S1131AE0709561957F4F8F4F9F4F0895E89409C07B
S1131AF097FB3EF490958095709561957F4F8F4F3D
S1131B009F4F9923A9F0F92F96E9BB279395F69552
S1131B10879577956795B795F111F8CFFAF4BB0FD0
S1131B2011F460FF1BC06F5F7F4F8F4F9F4F16C034
S1131B30882311F096E911C0772321F09EE8872FBE
S1131B40762F05C0662371F096E8862F70E060E07A
S1131B502AF09A95660F771F881FDAF7880F9695F3
S1131B60879597F9089557FD9058440F551F59F0DC
S1131B705F3F71F04795880F97FB991F61F09F3F76
S1131B8079F087950895121613061406551FF2CF9F
S1131B904695F1DF08C0161617061806991FF1CFEF
S1131BA086957105610508940895E894BB27662716
S1131BB07727CB0197F908950E94EF0D0C94600EDE
S1131BC00E94520E38F00E94590E20F0952311F015
S1131BD00C94490E0C944F0E11240C94D60D0E94B3
S1131BE0B30D70F3959FC1F3950F50E0551F629F9D
S1131BF0F001729FBB27F00DB11D639FAA27F00D62
S1131C00B11DAA1F649F6627B00DA11D661F829F88
S1131C102227B00DA11D621F739FB00DA11D621F6D
S1131C20839FA00D611D221F749F3327A00D611D8A
S1131C30231F849F600D211D822F762F6A2F11246C
S1131C409F5750409AF0F1F088234AF0EE0FFF1F9F
S1131C50BB1F661F771F881F91505040A9F79E3FF6
S1131C60510580F00C94490E0C94D60D5F3FE4F3BB
S1131C70983ED4F3869577956795B795F795E7954C
S1131C809F5FC1F7FE2B880F911D9695879597F955
S1131C90089597F99F6780E870E060E008959FEFEA
S1131CA080EC089500240A941616170618060906EF
S1131CB0089500240A9412161306140605060895BE
S1131CC0092E0394000C11F4882352F0BB0F40F446
S1131CD0BF2B11F460FF04C06F5F7F4F8F4F9F4F86
S1131CE0089597FB072E16F4009407D077FD09D0CA
S1131CF00E94A70E07FC05D03EF4909581959F4F56
S1131D000895709561957F4F0895A1E21A2EAA1B3C
S1131D10BB1BFD010DC0AA1FBB1FEE1FFF1FA21797
S1131D20B307E407F50720F0A21BB30BE40BF50B94
S1131D30661F771F881F991F1A9469F7609570951D
S1131D40809590959B01AC01BD01CF010895AA1B1C
S1131D50BB1B51E107C0AA1FBB1FA617B70710F092
S1131D60A61BB70B881F991F5A95A9F780959095C4
S1131D70BC01CD010895FC0188279927E89421919D
S1131D802032E9F3293010F02E30C8F32B3241F021
S1131D902D3239F4689404C00E94F30E820F911D11
S1131DA0219120532A30C0F31EF4909581959F4FC2
S1131DB00895FB0151915523A9F0BF01DC014D9118
S1131DC045174111E1F759F4CD010190002049F084
S1131DD04D9140154111C9F3FB014111EFCF81E051
S1131DE090E0019708957AE0979F902D879F802D2A
S1131DF0910D11240895AEE0B0E0E1E0FFE00C9411
S1131E00EC110D891E898F89988D26E02C831A8305
S1131E10098397FF02C080E090E801979E838D8339
S1131E20AE01455E5F4F698D7A8DCE0101960E94A9
S1131E304D0F4D815E8157FD0AC02F8138854217B1
S1131E4053070CF49A01F801E20FF31F10822E9647
S1131E50E4E00C940812AEE0B0E0E1E3FFE00C949F
S1131E60EC110D891E8986E08C831A8309838FEF18
S1131E709FE79E838D83AE01475E5F4F6F89788DA8
S1131E80CE0101960E944D0FEF81F885E00FF11FFE
S1131E9010822E96E4E00C940812ABE0B0E0E3E587
S1131EA0FFE00C94DE116C017B018A01FC011782B6
S1131EB01682838181FFCCC1CE0101963C01F601DB
S1131EC09381F70193FD859193FF81917F0188238D
S1131ED009F4BAC1853239F493FD859193FF819158
S1131EE07F01853229F4B60190E00E944411E7CFC6
S1131EF0912C212C312CFFE1F315D8F08B3279F0A1
S1131F0038F4803279F08332A1F4232D20611DC08E
S1131F108D3261F0803369F4232D216016C0832D46
S1131F208260382EE32DE4603E2E2AC0F32DF86043
S1131F301DC037FC2DC020ED280F2A3040F08E3212
S1131F40B9F436FC81C1232D2064322E19C036FE2B
S1131F5006C08AE0989E200D1124922E11C0EAE05A
S1131F602E9E200D1124222EF32DF0623F2E08C048
S1131F708C3621F4832D8068382E02C0883641F4D3
S1131F80F70193FD859193FF81917F018111B3CF77
S1131F90982F9F7D9554933028F40C5F1F4F9FE337
S1131FA099830DC0833631F0833771F0833509F09E
S1131FB059C021C0F801808189830E5F1F4F882496
S1131FC08394912C530113C02801F2E04F0E511C4D
S1131FD0F801A080B18036FE03C0692D70E002C014
S1131FE06FEF7FEFC5010E9439114C018201F32D7F
S1131FF0FF773F2E16C0280122E0420E511CF80143
S1132000A080B18036FE03C0692D70E002C06FEF7E
S11320107FEFC5010E942E114C01F32DF0683F2E75
S1132020820133FC1BC0822D90E088169906B0F41F
S1132030B60180E290E00E9444112A94F4CFF501A5
S113204037FC859137FE81915F01B60190E00E94D3
S1132050441121102A9421E0821A910881149104D8
S113206071F7E8C0843611F0893641F5F80137FE7E
S113207007C060817181828193810C5F1F4F08C00A
S113208060817181072E000C880B990B0E5F1F4F26
S1132090F32DFF763F2E97FF09C09095809570959C
S11320A061957F4F8F4F9F4FF0683F2E2AE030E0BD
S11320B0A3010E948011882E861845C0853731F40B
S11320C0232D2F7EB22E2AE030E025C0932D997F58
S11320D0B92E8F36C1F018F4883579F0B5C0803741
S11320E019F0883721F0B0C0E92FE061BE2EB4FEAC
S11320F00DC0FB2DF460BF2E09C034FE0AC0292F89
S11321002660B22E06C028E030E005C020E130E0B1
S113211002C020E132E0F801B7FE07C0608171819E
S1132120828193810C5F1F4F06C06081718180E0C2
S113213090E00E5F1F4FA3010E948011882E861825
S1132140FB2DFF773F2E36FE0DC0232D2E7FA22EB2
S1132150891458F434FE0BC032FC09C0832D8E7EE2
S1132160A82E05C0B82CA32C03C0B82C01C0B92CD0
S1132170A4FE0FC0FE01E80DF11D8081803321F41F
S11321809A2D997EA92E09C0A2FE06C0B394B394D9
S113219004C08A2D867809F0B394A3FC11C0A0FE74
S11321A006C0B21488F4280C922C9B180EC0B214EA
S11321B060F4B60180E290E00E944411B394F7CF3A
S11321C0B21418F42B1802C0982C212CA4FE10C0B1
S11321D0B60180E390E00E944411A2FE17C0A1FC66
S11321E003C088E790E002C088E590E0B6010CC027
S11321F08A2D867859F0A1FE02C08BE201C080E2EC
S1132200A7FC8DE2B60190E00E944411891438F4D1
S1132210B60180E390E00E9444119A94F7CF8A9427
S1132220F301E80DF11D8081B60190E00E94441194
S11322308110F5CF222009F442CEB60180E290E06D
S11322400E9444112A94F6CFF6018681978102C038
S11322508FEF9FEF2B96E2E10C94FA11FC010590AD
S1132260615070400110D8F7809590958E0F9F1F94
S11322700895FC016150704001900110D8F78095D9
S113228090958E0F9F1F08950F931F93CF93DF9305
S1132290FB01238121FD03C08FEF9FEF2CC022FFA0
S11322A016C046815781248135814217530744F46F
S11322B0A081B1819D012F5F3F4F318320838C9397
S11322C0268137812F5F3F4F3783268314C08B01CC
S11322D0EC01FB010084F185E02D0995892BE1F6E1
S11322E0D80116968D919C911797019617969C93F9
S11322F08E931697CE01DF91CF911F910F91089580
S1132300FA01AA27283051F1203181F1E8946F9322
S11323106E7F6E5F7F4F8F4F9F4FAF4FB1E03ED0C8
S1132320B4E03CD0670F781F891F9A1FA11D680F66
S1132330791F8A1F911DA11D6A0F711D811D911D99
S1132340A11D20D009F468943F912AE0269F11240E
S11323503019305D3193DEF6CF010895462F477072
S1132360405D4193B3E00FD0C9F7F6CF462F4F70CD
S1132370405D4A3318F0495D31FD4052419302D02B
S1132380A9F7EACFB4E0A6959795879577956795D1
S1132390BA95C9F700976105710508959B01AC01D1
S11323A00A2E06945795479537952795BA95C9F7F8
S11323B0620F731F841F951FA01D08952F923F92D3
S11323C04F925F926F927F928F929F92AF92BF9241
S11323D0CF92DF92EF92FF920F931F93CF93DF93ED
S11323E0CDB7DEB7CA1BDB0B0FB6F894DEBF0FBE4A
S11323F0CDBF09942A88398848885F846E847D8497
S11324008C849B84AA84B984C884DF80EE80FD8098
S11324100C811B81AA81B981CE0FD11D0FB6F8940E
S1112420DEBF0FBECDBFED010895F894FFCFCF
S113242E031E031E171917253032783A25303278D9
S113243E0025642E2564204300253032782F253064
S113244E32782F253032782000253032643A253008
S113245E326400526173766A65746100646F00566B
S113246E726174613A00253032646D696E00446F96
S113247E3A003830006170692E7468696E67737043
S113248E65616B2E636F6D0041542B434950535459
S113249E4152543D22544350222C222573222C2582
S11324AE7300424C5055534F384A4B354A5A3650A6
S11324BE4E41004745542068747470733A2F2F614F
S11324CE70692E7468696E67737065616B2E636FC5
S11324DE6D2F7570646174653F6170695F6B6579AA
S11324EE3D2573266669656C6425643D2564004745
S11324FE45542068747470733A2F2F6170692E746A
S113250E68696E67737065616B2E636F6D2F75707E
S113251E646174653F6170695F6B65793D257326EF
S113252E6669656C6425643D256425640041542BFD
S113253E43495053454E443D2564003134353538B6
S113254E3839004745542068747470733A2F2F61DC
S113255E70692E7468696E67737065616B2E636F34
S113256E6D2F6368616E6E656C732F25732F6669AC
S113257E656C64732F25642F6C6173742E74787478
S113258E00434C4F002B495044005354415455536F
S113259E3A005749464920434F4E4E45435445440D
S11325AE004641494C004552524F52006B727177AE
S11325BE6572747976656C696B696D736C6F766927
S11325CE6D61005369656D656E73574C414E0041E4
S11325DE542B43574A41503D222573222C222573F6
S11325EE220041542B4349505354415455530D0A20
S11325FE004F4B002A003E003C00555044415449C4
S107260E4E4700002F
S9030000FC
